{
  "transactions": [
    {
      "hash": "0x3e64174480c63ac87a98af52b8864cc48282d7ca9c8685897540c1509fbb793e",
      "transactionType": "CALL",
      "contractName": null,
      "contractAddress": "0x68df70070872b49670190c9c6f77478fc9bc2f48",
      "function": "approve(address,uint256)",
      "arguments": [
        "0xa9d547007B9ce930dde76Ce038ce2f0aa53F1F5E",
        "100000000000000000000"
      ],
      "transaction": {
        "from": "0x03fd7bb0b5ae70e6ca45f750628d210f1782ae92",
        "to": "0x68df70070872b49670190c9c6f77478fc9bc2f48",
        "gas": "0x8623",
        "value": "0x0",
        "input": "0x095ea7b3000000000000000000000000a9d547007b9ce930dde76ce038ce2f0aa53f1f5e0000000000000000000000000000000000000000000000056bc75e2d63100000",
        "nonce": "0x17",
        "chainId": "0xaa36a7"
      },
      "additionalContracts": [],
      "isFixedGasLimit": false
    },
    {
      "hash": "0x0e0ad59979b5f4b4665b7ceefe5909873d0b04ced523c909dea82ef9f23ebb65",
      "transactionType": "CALL",
      "contractName": null,
      "contractAddress": "0xa9d547007b9ce930dde76ce038ce2f0aa53f1f5e",
      "function": "deposit(bytes32)",
      "arguments": [
        "0x1deddee813a414673fabb71abd222fa273e70cd8b55f76913a88cc13afc96a71"
      ],
      "transaction": {
        "from": "0x03fd7bb0b5ae70e6ca45f750628d210f1782ae92",
        "to": "0xa9d547007b9ce930dde76ce038ce2f0aa53f1f5e",
        "gas": "0x621407",
        "value": "0x0",
        "input": "0xb214faa51deddee813a414673fabb71abd222fa273e70cd8b55f76913a88cc13afc96a71",
        "nonce": "0x18",
        "chainId": "0xaa36a7"
      },
      "additionalContracts": [],
      "isFixedGasLimit": false
    }
  ],
  "receipts": [
    {
      "status": "0x1",
      "cumulativeGasUsed": "0xb97152",
      "logs": [],
      "logsBloom": "0x00000000000000000000000000000000000000000000000000000000000000000000000000000000000000000000000000000000000000000000000000000000000000000000000000000000000000000000000000000000000000000000000000000000000000000000000000000000000000000000000000000000000000000000000000000000000000000000000000000000000000000000000000000000000000000000000000000000000000000000000000000000000000000000000000000000000000000000000000000000000000000000000000000000000000000000000000000000000000000000000000000000000000000000000000000000",
      "type": "0x2",
      "transactionHash": "0x3e64174480c63ac87a98af52b8864cc48282d7ca9c8685897540c1509fbb793e",
      "transactionIndex": "0x4b",
      "blockHash": "0xbfc6823dd6b1f990f490b0d9f368d5b4a1594e243ffc9d1f78b57d0bb4933c24",
      "blockNumber": "0x9c70a7",
      "gasUsed": "0x611e",
      "effectiveGasPrice": "0x11433ea2a",
      "from": "0x03fd7bb0b5ae70e6ca45f750628d210f1782ae92",
      "to": "0x68df70070872b49670190c9c6f77478fc9bc2f48",
      "contractAddress": null
    },
    {
      "status": "0x1",
      "cumulativeGasUsed": "0xfc8134",
      "logs": [
        {
          "address": "0xa9d547007b9ce930dde76ce038ce2f0aa53f1f5e",
          "topics": [
            "0x03f882a741598a0baf387895ec0dce5fea86b542efc234beed430d9c4bfd2367",
            "0x0000000000000000000000000000000000000000000000000000000000000000"
          ],
          "data": "0x1deddee813a414673fabb71abd222fa273e70cd8b55f76913a88cc13afc96a71144c19017dad0a683ed31bfe7b17db2d3d9e47cea867f9aaa1212fc67a6c1b92",
          "blockHash": "0xbfc6823dd6b1f990f490b0d9f368d5b4a1594e243ffc9d1f78b57d0bb4933c24",
          "blockNumber": "0x9c70a7",
          "blockTimestamp": "0x698f2e30",
          "transactionHash": "0x0e0ad59979b5f4b4665b7ceefe5909873d0b04ced523c909dea82ef9f23ebb65",
          "transactionIndex": "0x4c",
          "logIndex": "0xa6",
          "removed": false
        },
        {
          "address": "0xa9d547007b9ce930dde76ce038ce2f0aa53f1f5e",
          "topics": [
            "0xa945e51eec50ab98c161376f0db4cf2aeba3ec92755fe2fcd388bdbbb80ff196",
            "0x1deddee813a414673fabb71abd222fa273e70cd8b55f76913a88cc13afc96a71"
          ],
          "data": "0x000000000000000000000000000000000000000000000000000000000000000000000000000000000000000000000000000000000000000000000000698f2e30",
          "blockHash": "0xbfc6823dd6b1f990f490b0d9f368d5b4a1594e243ffc9d1f78b57d0bb4933c24",
          "blockNumber": "0x9c70a7",
          "blockTimestamp": "0x698f2e30",
          "transactionHash": "0x0e0ad59979b5f4b4665b7ceefe5909873d0b04ced523c909dea82ef9f23ebb65",
          "transactionIndex": "0x4c",
          "logIndex": "0xa7",
          "removed": false
        }
      ],
      "logsBloom": "0x00000000000000000000000000000000000000000000000000000000020000000000000000000000000000000000000000000000000000000000000000000000000000000000000000000004000000000000000000000002000000000000000000000000020000000001000000004800000000000000000000000000000000000000000100000000000000000200000010000000000000000000000000000000000000000000000000000002000000000000000000000000000000000000000000000000000000000000000000000000000000000000000004200000000020000000000000000000000000000000020000000000000000000000000000000000",
      "type": "0x2",
      "transactionHash": "0x0e0ad59979b5f4b4665b7ceefe5909873d0b04ced523c909dea82ef9f23ebb65",
      "transactionIndex": "0x4c",
      "blockHash": "0xbfc6823dd6b1f990f490b0d9f368d5b4a1594e243ffc9d1f78b57d0bb4933c24",
      "blockNumber": "0x9c70a7",
      "gasUsed": "0x430fe2",
      "effectiveGasPrice": "0x11433ea2a",
      "from": "0x03fd7bb0b5ae70e6ca45f750628d210f1782ae92",
      "to": "0xa9d547007b9ce930dde76ce038ce2f0aa53f1f5e",
      "contractAddress": null
    }
  ],
  "libraries": [],
  "pending": [],
  "returns": {},
  "timestamp": 1770991154708,
  "chain": 11155111,
  "commit": null
}